{"abi":[{"type":"constructor","inputs":[],"stateMutability":"nonpayable"},{"type":"receive","stateMutability":"payable"},{"type":"function","name":"bulkTransfer","inputs":[{"name":"tokens","type":"address[]","internalType":"address[]"},{"name":"recipients","type":"address[]","internalType":"address[]"},{"name":"amounts","type":"uint256[]","internalType":"uint256[]"}],"outputs":[],"stateMutability":"payable"},{"type":"function","name":"owner","inputs":[],"outputs":[{"name":"","type":"address","internalType":"address"}],"stateMutability":"view"},{"type":"function","name":"renounceOwnership","inputs":[],"outputs":[],"stateMutability":"nonpayable"},{"type":"function","name":"transferOwnership","inputs":[{"name":"newOwner","type":"address","internalType":"address"}],"outputs":[],"stateMutability":"nonpayable"},{"type":"function","name":"withdrawNative","inputs":[{"name":"to","type":"address","internalType":"address payable"}],"outputs":[],"stateMutability":"nonpayable"},{"type":"function","name":"withdrawTokens","inputs":[{"name":"token","type":"address","internalType":"address"},{"name":"to","type":"address","internalType":"address"}],"outputs":[],"stateMutability":"nonpayable"},{"type":"event","name":"BulkTransfer","inputs":[{"name":"token","type":"address","indexed":true,"internalType":"address"},{"name":"sender","type":"address","indexed":true,"internalType":"address"},{"name":"totalTransfers","type":"uint256","indexed":false,"internalType":"uint256"},{"name":"totalAmount","type":"uint256","indexed":false,"internalType":"uint256"}],"anonymous":false},{"type":"event","name":"OwnershipTransferred","inputs":[{"name":"previousOwner","type":"address","indexed":true,"internalType":"address"},{"name":"newOwner","type":"address","indexed":true,"internalType":"address"}],"anonymous":false},{"type":"event","name":"TokenTransfer","inputs":[{"name":"token","type":"address","indexed":true,"internalType":"address"},{"name":"from","type":"address","indexed":true,"internalType":"address"},{"name":"to","type":"address","indexed":true,"internalType":"address"},{"name":"amount","type":"uint256","indexed":false,"internalType":"uint256"}],"anonymous":false},{"type":"error","name":"OwnableInvalidOwner","inputs":[{"name":"owner","type":"address","internalType":"address"}]},{"type":"error","name":"OwnableUnauthorizedAccount","inputs":[{"name":"account","type":"address","internalType":"address"}]}],"bytecode":{"object":"0x608060405234801561000f575f5ffd5b50335f73ffffffffffffffffffffffffffffffffffffffff168173ffffffffffffffffffffffffffffffffffffffff1603610081575f6040517f1e4fbdf7000000000000000000000000000000000000000000000000000000008152600401610078919061019d565b60405180910390fd5b6100908161009d60201b60201c565b50600180819055506101b6565b5f5f5f9054906101000a900473ffffffffffffffffffffffffffffffffffffffff169050815f5f6101000a81548173ffffffffffffffffffffffffffffffffffffffff021916908373ffffffffffffffffffffffffffffffffffffffff1602179055508173ffffffffffffffffffffffffffffffffffffffff168173ffffffffffffffffffffffffffffffffffffffff167f8be0079c531659141344cd1fd0a4f28419497f9722a3daafe3b4186f6b6457e060405160405180910390a35050565b5f73ffffffffffffffffffffffffffffffffffffffff82169050919050565b5f6101878261015e565b9050919050565b6101978161017d565b82525050565b5f6020820190506101b05f83018461018e565b92915050565b611667806101c35f395ff3fe608060405260043610610058575f3560e01c80632f622e6b14610063578063715018a61461008b5780638da5cb5b146100a1578063a522ad25146100cb578063e9809456146100f3578063f2fde38b1461010f5761005f565b3661005f57005b5f5ffd5b34801561006e575f5ffd5b5061008960048036038101906100849190610c6d565b610137565b005b348015610096575f5ffd5b5061009f610232565b005b3480156100ac575f5ffd5b506100b5610245565b6040516100c29190610cb8565b60405180910390f35b3480156100d6575f5ffd5b506100f160048036038101906100ec9190610cfb565b61026c565b005b61010d60048036038101906101089190610def565b6103f5565b005b34801561011a575f5ffd5b5061013560048036038101906101309190610e9f565b610a38565b005b61013f610abc565b5f4790505f8111610185576040517f08c379a000000000000000000000000000000000000000000000000000000000815260040161017c90610f24565b60405180910390fd5b5f8273ffffffffffffffffffffffffffffffffffffffff16826040516101aa90610f6f565b5f6040518083038185875af1925050503d805f81146101e4576040519150601f19603f3d011682016040523d82523d5f602084013e6101e9565b606091505b505090508061022d576040517f08c379a000000000000000000000000000000000000000000000000000000000815260040161022490610fcd565b60405180910390fd5b505050565b61023a610abc565b6102435f610b43565b565b5f5f5f9054906101000a900473ffffffffffffffffffffffffffffffffffffffff16905090565b610274610abc565b5f8290505f8173ffffffffffffffffffffffffffffffffffffffff166370a08231306040518263ffffffff1660e01b81526004016102b29190610cb8565b602060405180830381865afa1580156102cd573d5f5f3e3d5ffd5b505050506040513d601f19601f820116820180604052508101906102f1919061101e565b90505f8111610335576040517f08c379a000000000000000000000000000000000000000000000000000000000815260040161032c90611093565b60405180910390fd5b8173ffffffffffffffffffffffffffffffffffffffff1663a9059cbb84836040518363ffffffff1660e01b81526004016103709291906110c0565b6020604051808303815f875af115801561038c573d5f5f3e3d5ffd5b505050506040513d601f19601f820116820180604052508101906103b0919061111c565b6103ef576040517f08c379a00000000000000000000000000000000000000000000000000000000081526004016103e690610fcd565b60405180910390fd5b50505050565b60026001540361043a576040517f08c379a000000000000000000000000000000000000000000000000000000000815260040161043190611191565b60405180910390fd5b6002600181905550838390508686905014801561045c57508181905084849050145b61049b576040517f08c379a0000000000000000000000000000000000000000000000000000000008152600401610492906111f9565b60405180910390fd5b5f84849050116104e0576040517f08c379a00000000000000000000000000000000000000000000000000000000081526004016104d790611261565b60405180910390fd5b6064848490501115610527576040517f08c379a000000000000000000000000000000000000000000000000000000000815260040161051e906112c9565b60405180910390fd5b5f5f90505f5f90505b85859050811015610625575f84848381811061054f5761054e6112e7565b5b9050602002013511610596576040517f08c379a000000000000000000000000000000000000000000000000000000000815260040161058d9061135e565b60405180910390fd5b5f73ffffffffffffffffffffffffffffffffffffffff168888838181106105c0576105bf6112e7565b5b90506020020160208101906105d59190610e9f565b73ffffffffffffffffffffffffffffffffffffffff160361061857838382818110610603576106026112e7565b5b905060200201358261061591906113a9565b91505b8080600101915050610530565b505f8111156106725780341015610671576040517f08c379a00000000000000000000000000000000000000000000000000000000081526004016106689061144c565b60405180910390fd5b5b5f5f90505b85859050811015610900575f73ffffffffffffffffffffffffffffffffffffffff168888838181106106ac576106ab6112e7565b5b90506020020160208101906106c19190610e9f565b73ffffffffffffffffffffffffffffffffffffffff16036107ca575f8686838181106106f0576106ef6112e7565b5b90506020020160208101906107059190610e9f565b73ffffffffffffffffffffffffffffffffffffffff1685858481811061072e5761072d6112e7565b5b9050602002013560405161074190610f6f565b5f6040518083038185875af1925050503d805f811461077b576040519150601f19603f3d011682016040523d82523d5f602084013e610780565b606091505b50509050806107c4576040517f08c379a00000000000000000000000000000000000000000000000000000000081526004016107bb906114b4565b60405180910390fd5b506108f3565b5f8888838181106107de576107dd6112e7565b5b90506020020160208101906107f39190610e9f565b90508073ffffffffffffffffffffffffffffffffffffffff166323b872dd33898986818110610825576108246112e7565b5b905060200201602081019061083a9190610e9f565b88888781811061084d5761084c6112e7565b5b905060200201356040518463ffffffff1660e01b8152600401610872939291906114d2565b6020604051808303815f875af115801561088e573d5f5f3e3d5ffd5b505050506040513d601f19601f820116820180604052508101906108b2919061111c565b6108f1576040517f08c379a00000000000000000000000000000000000000000000000000000000081526004016108e890611551565b60405180910390fd5b505b8080600101915050610677565b50803411156109be575f3373ffffffffffffffffffffffffffffffffffffffff16823461092d919061156f565b60405161093990610f6f565b5f6040518083038185875af1925050503d805f8114610973576040519150601f19603f3d011682016040523d82523d5f602084013e610978565b606091505b50509050806109bc576040517f08c379a00000000000000000000000000000000000000000000000000000000081526004016109b3906115ec565b60405180910390fd5b505b3373ffffffffffffffffffffffffffffffffffffffff165f73ffffffffffffffffffffffffffffffffffffffff167f0e44f322f75e6e3e6adda86949c7436e8c790ccb4af24a11260b0b665ad910d88787905084604051610a2092919061160a565b60405180910390a35060018081905550505050505050565b610a40610abc565b5f73ffffffffffffffffffffffffffffffffffffffff168173ffffffffffffffffffffffffffffffffffffffff1603610ab0575f6040517f1e4fbdf7000000000000000000000000000000000000000000000000000000008152600401610aa79190610cb8565b60405180910390fd5b610ab981610b43565b50565b610ac4610c04565b73ffffffffffffffffffffffffffffffffffffffff16610ae2610245565b73ffffffffffffffffffffffffffffffffffffffff1614610b4157610b05610c04565b6040517f118cdaa7000000000000000000000000000000000000000000000000000000008152600401610b389190610cb8565b60405180910390fd5b565b5f5f5f9054906101000a900473ffffffffffffffffffffffffffffffffffffffff169050815f5f6101000a81548173ffffffffffffffffffffffffffffffffffffffff021916908373ffffffffffffffffffffffffffffffffffffffff1602179055508173ffffffffffffffffffffffffffffffffffffffff168173ffffffffffffffffffffffffffffffffffffffff167f8be0079c531659141344cd1fd0a4f28419497f9722a3daafe3b4186f6b6457e060405160405180910390a35050565b5f33905090565b5f5ffd5b5f5ffd5b5f73ffffffffffffffffffffffffffffffffffffffff82169050919050565b5f610c3c82610c13565b9050919050565b610c4c81610c32565b8114610c56575f5ffd5b50565b5f81359050610c6781610c43565b92915050565b5f60208284031215610c8257610c81610c0b565b5b5f610c8f84828501610c59565b91505092915050565b5f610ca282610c13565b9050919050565b610cb281610c98565b82525050565b5f602082019050610ccb5f830184610ca9565b92915050565b610cda81610c98565b8114610ce4575f5ffd5b50565b5f81359050610cf581610cd1565b92915050565b5f5f60408385031215610d1157610d10610c0b565b5b5f610d1e85828601610ce7565b9250506020610d2f85828601610ce7565b9150509250929050565b5f5ffd5b5f5ffd5b5f5ffd5b5f5f83601f840112610d5a57610d59610d39565b5b8235905067ffffffffffffffff811115610d7757610d76610d3d565b5b602083019150836020820283011115610d9357610d92610d41565b5b9250929050565b5f5f83601f840112610daf57610dae610d39565b5b8235905067ffffffffffffffff811115610dcc57610dcb610d3d565b5b602083019150836020820283011115610de857610de7610d41565b5b9250929050565b5f5f5f5f5f5f60608789031215610e0957610e08610c0b565b5b5f87013567ffffffffffffffff811115610e2657610e25610c0f565b5b610e3289828a01610d45565b9650965050602087013567ffffffffffffffff811115610e5557610e54610c0f565b5b610e6189828a01610d45565b9450945050604087013567ffffffffffffffff811115610e8457610e83610c0f565b5b610e9089828a01610d9a565b92509250509295509295509295565b5f60208284031215610eb457610eb3610c0b565b5b5f610ec184828501610ce7565b91505092915050565b5f82825260208201905092915050565b7f4e6f206e61746976652063757272656e637920746f20776974686472617700005f82015250565b5f610f0e601e83610eca565b9150610f1982610eda565b602082019050919050565b5f6020820190508181035f830152610f3b81610f02565b9050919050565b5f81905092915050565b50565b5f610f5a5f83610f42565b9150610f6582610f4c565b5f82019050919050565b5f610f7982610f4f565b9150819050919050565b7f5769746864726177206661696c656400000000000000000000000000000000005f82015250565b5f610fb7600f83610eca565b9150610fc282610f83565b602082019050919050565b5f6020820190508181035f830152610fe481610fab565b9050919050565b5f819050919050565b610ffd81610feb565b8114611007575f5ffd5b50565b5f8151905061101881610ff4565b92915050565b5f6020828403121561103357611032610c0b565b5b5f6110408482850161100a565b91505092915050565b7f4e6f20746f6b656e7320746f20776974686472617700000000000000000000005f82015250565b5f61107d601583610eca565b915061108882611049565b602082019050919050565b5f6020820190508181035f8301526110aa81611071565b9050919050565b6110ba81610feb565b82525050565b5f6040820190506110d35f830185610ca9565b6110e060208301846110b1565b9392505050565b5f8115159050919050565b6110fb816110e7565b8114611105575f5ffd5b50565b5f81519050611116816110f2565b92915050565b5f6020828403121561113157611130610c0b565b5b5f61113e84828501611108565b91505092915050565b7f5265656e7472616e637947756172643a207265656e7472616e742063616c6c005f82015250565b5f61117b601f83610eca565b915061118682611147565b602082019050919050565b5f6020820190508181035f8301526111a88161116f565b9050919050565b7f417272617973206c656e677468206d69736d61746368000000000000000000005f82015250565b5f6111e3601683610eca565b91506111ee826111af565b602082019050919050565b5f6020820190508181035f830152611210816111d7565b9050919050565b7f4e6f20726563697069656e74732070726f7669646564000000000000000000005f82015250565b5f61124b601683610eca565b915061125682611217565b602082019050919050565b5f6020820190508181035f8301526112788161123f565b9050919050565b7f546f6f206d616e7920726563697069656e7473000000000000000000000000005f82015250565b5f6112b3601383610eca565b91506112be8261127f565b602082019050919050565b5f6020820190508181035f8301526112e0816112a7565b9050919050565b7f4e487b71000000000000000000000000000000000000000000000000000000005f52603260045260245ffd5b7f416d6f756e74206d7573742062652067726561746572207468616e20300000005f82015250565b5f611348601d83610eca565b915061135382611314565b602082019050919050565b5f6020820190508181035f8301526113758161133c565b9050919050565b7f4e487b71000000000000000000000000000000000000000000000000000000005f52601160045260245ffd5b5f6113b382610feb565b91506113be83610feb565b92508282019050808211156113d6576113d561137c565b5b92915050565b7f496e73756666696369656e74206e61746976652063757272656e63792073656e5f8201527f7400000000000000000000000000000000000000000000000000000000000000602082015250565b5f611436602183610eca565b9150611441826113dc565b604082019050919050565b5f6020820190508181035f8301526114638161142a565b9050919050565b7f4e6174697665207472616e73666572206661696c6564000000000000000000005f82015250565b5f61149e601683610eca565b91506114a98261146a565b602082019050919050565b5f6020820190508181035f8301526114cb81611492565b9050919050565b5f6060820190506114e55f830186610ca9565b6114f26020830185610ca9565b6114ff60408301846110b1565b949350505050565b7f546f6b656e207472616e73666572206661696c656400000000000000000000005f82015250565b5f61153b601583610eca565b915061154682611507565b602082019050919050565b5f6020820190508181035f8301526115688161152f565b9050919050565b5f61157982610feb565b915061158483610feb565b925082820390508181111561159c5761159b61137c565b5b92915050565b7f526566756e64206661696c6564000000000000000000000000000000000000005f82015250565b5f6115d6600d83610eca565b91506115e1826115a2565b602082019050919050565b5f6020820190508181035f830152611603816115ca565b9050919050565b5f60408201905061161d5f8301856110b1565b61162a60208301846110b1565b939250505056fea2646970667358221220e9ce4816536d7c5f161a79ede0a7d7c8adc301a2f1bd1d59f25a60fdf0e67e6664736f6c634300081c0033","linkReferences":{}},"methodIdentifiers":{"bulkTransfer(address[],address[],uint256[])":"e9809456","owner()":"8da5cb5b","renounceOwnership()":"715018a6","transferOwnership(address)":"f2fde38b","withdrawNative(address)":"2f622e6b","withdrawTokens(address,address)":"a522ad25"},"id":21}