{"abi":[{"type":"constructor","inputs":[],"stateMutability":"nonpayable"},{"type":"function","name":"allowance","inputs":[{"name":"owner","type":"address","internalType":"address"},{"name":"spender","type":"address","internalType":"address"}],"outputs":[{"name":"","type":"uint256","internalType":"uint256"}],"stateMutability":"view"},{"type":"function","name":"approve","inputs":[{"name":"spender","type":"address","internalType":"address"},{"name":"value","type":"uint256","internalType":"uint256"}],"outputs":[{"name":"","type":"bool","internalType":"bool"}],"stateMutability":"nonpayable"},{"type":"function","name":"balanceOf","inputs":[{"name":"account","type":"address","internalType":"address"}],"outputs":[{"name":"","type":"uint256","internalType":"uint256"}],"stateMutability":"view"},{"type":"function","name":"bulkTransfer","inputs":[{"name":"recipients","type":"address[]","internalType":"address[]"},{"name":"amounts","type":"uint256[]","internalType":"uint256[]"}],"outputs":[],"stateMutability":"nonpayable"},{"type":"function","name":"bulkTransferFromContract","inputs":[{"name":"recipients","type":"address[]","internalType":"address[]"},{"name":"amounts","type":"uint256[]","internalType":"uint256[]"}],"outputs":[],"stateMutability":"nonpayable"},{"type":"function","name":"bulkTransferNative","inputs":[{"name":"recipients","type":"address[]","internalType":"address[]"},{"name":"amounts","type":"uint256[]","internalType":"uint256[]"}],"outputs":[],"stateMutability":"payable"},{"type":"function","name":"decimals","inputs":[],"outputs":[{"name":"","type":"uint8","internalType":"uint8"}],"stateMutability":"view"},{"type":"function","name":"mint","inputs":[{"name":"to","type":"address","internalType":"address"},{"name":"amount","type":"uint256","internalType":"uint256"}],"outputs":[],"stateMutability":"nonpayable"},{"type":"function","name":"name","inputs":[],"outputs":[{"name":"","type":"string","internalType":"string"}],"stateMutability":"view"},{"type":"function","name":"owner","inputs":[],"outputs":[{"name":"","type":"address","internalType":"address"}],"stateMutability":"view"},{"type":"function","name":"renounceOwnership","inputs":[],"outputs":[],"stateMutability":"nonpayable"},{"type":"function","name":"symbol","inputs":[],"outputs":[{"name":"","type":"string","internalType":"string"}],"stateMutability":"view"},{"type":"function","name":"totalSupply","inputs":[],"outputs":[{"name":"","type":"uint256","internalType":"uint256"}],"stateMutability":"view"},{"type":"function","name":"transfer","inputs":[{"name":"to","type":"address","internalType":"address"},{"name":"value","type":"uint256","internalType":"uint256"}],"outputs":[{"name":"","type":"bool","internalType":"bool"}],"stateMutability":"nonpayable"},{"type":"function","name":"transferFrom","inputs":[{"name":"from","type":"address","internalType":"address"},{"name":"to","type":"address","internalType":"address"},{"name":"value","type":"uint256","internalType":"uint256"}],"outputs":[{"name":"","type":"bool","internalType":"bool"}],"stateMutability":"nonpayable"},{"type":"function","name":"transferOwnership","inputs":[{"name":"newOwner","type":"address","internalType":"address"}],"outputs":[],"stateMutability":"nonpayable"},{"type":"function","name":"withdrawNative","inputs":[{"name":"amount","type":"uint256","internalType":"uint256"}],"outputs":[],"stateMutability":"nonpayable"},{"type":"function","name":"withdrawToken","inputs":[{"name":"token","type":"address","internalType":"address"},{"name":"amount","type":"uint256","internalType":"uint256"}],"outputs":[],"stateMutability":"nonpayable"},{"type":"event","name":"Approval","inputs":[{"name":"owner","type":"address","indexed":true,"internalType":"address"},{"name":"spender","type":"address","indexed":true,"internalType":"address"},{"name":"value","type":"uint256","indexed":false,"internalType":"uint256"}],"anonymous":false},{"type":"event","name":"OwnershipTransferred","inputs":[{"name":"previousOwner","type":"address","indexed":true,"internalType":"address"},{"name":"newOwner","type":"address","indexed":true,"internalType":"address"}],"anonymous":false},{"type":"event","name":"Transfer","inputs":[{"name":"from","type":"address","indexed":true,"internalType":"address"},{"name":"to","type":"address","indexed":true,"internalType":"address"},{"name":"value","type":"uint256","indexed":false,"internalType":"uint256"}],"anonymous":false},{"type":"error","name":"ERC20InsufficientAllowance","inputs":[{"name":"spender","type":"address","internalType":"address"},{"name":"allowance","type":"uint256","internalType":"uint256"},{"name":"needed","type":"uint256","internalType":"uint256"}]},{"type":"error","name":"ERC20InsufficientBalance","inputs":[{"name":"sender","type":"address","internalType":"address"},{"name":"balance","type":"uint256","internalType":"uint256"},{"name":"needed","type":"uint256","internalType":"uint256"}]},{"type":"error","name":"ERC20InvalidApprover","inputs":[{"name":"approver","type":"address","internalType":"address"}]},{"type":"error","name":"ERC20InvalidReceiver","inputs":[{"name":"receiver","type":"address","internalType":"address"}]},{"type":"error","name":"ERC20InvalidSender","inputs":[{"name":"sender","type":"address","internalType":"address"}]},{"type":"error","name":"ERC20InvalidSpender","inputs":[{"name":"spender","type":"address","internalType":"address"}]},{"type":"error","name":"OwnableInvalidOwner","inputs":[{"name":"owner","type":"address","internalType":"address"}]},{"type":"error","name":"OwnableUnauthorizedAccount","inputs":[{"name":"account","type":"address","internalType":"address"}]}],"bytecode":{"object":"0x608060405234801561000f575f5ffd5b50336040518060400160405280600d81526020017f5361766547617320546f6b656e000000000000000000000000000000000000008152506040518060400160405280600381526020017f5347540000000000000000000000000000000000000000000000000000000000815250816003908161008c9190610701565b50806004908161009c9190610701565b5050505f73ffffffffffffffffffffffffffffffffffffffff168173ffffffffffffffffffffffffffffffffffffffff160361010f575f6040517f1e4fbdf7000000000000000000000000000000000000000000000000000000008152600401610106919061080f565b60405180910390fd5b61011e8161015b60201b60201c565b506101563361013161021e60201b60201c565b600a61013d9190610990565b620f424061014b91906109da565b61022660201b60201c565b610aab565b5f60055f9054906101000a900473ffffffffffffffffffffffffffffffffffffffff1690508160055f6101000a81548173ffffffffffffffffffffffffffffffffffffffff021916908373ffffffffffffffffffffffffffffffffffffffff1602179055508173ffffffffffffffffffffffffffffffffffffffff168173ffffffffffffffffffffffffffffffffffffffff167f8be0079c531659141344cd1fd0a4f28419497f9722a3daafe3b4186f6b6457e060405160405180910390a35050565b5f6012905090565b5f73ffffffffffffffffffffffffffffffffffffffff168273ffffffffffffffffffffffffffffffffffffffff1603610296575f6040517fec442f0500000000000000000000000000000000000000000000000000000000815260040161028d919061080f565b60405180910390fd5b6102a75f83836102ab60201b60201c565b5050565b5f73ffffffffffffffffffffffffffffffffffffffff168373ffffffffffffffffffffffffffffffffffffffff16036102fb578060025f8282546102ef9190610a1b565b925050819055506103c9565b5f5f5f8573ffffffffffffffffffffffffffffffffffffffff1673ffffffffffffffffffffffffffffffffffffffff1681526020019081526020015f2054905081811015610384578381836040517fe450d38c00000000000000000000000000000000000000000000000000000000815260040161037b93929190610a5d565b60405180910390fd5b8181035f5f8673ffffffffffffffffffffffffffffffffffffffff1673ffffffffffffffffffffffffffffffffffffffff1681526020019081526020015f2081905550505b5f73ffffffffffffffffffffffffffffffffffffffff168273ffffffffffffffffffffffffffffffffffffffff1603610410578060025f828254039250508190555061045a565b805f5f8473ffffffffffffffffffffffffffffffffffffffff1673ffffffffffffffffffffffffffffffffffffffff1681526020019081526020015f205f82825401925050819055505b8173ffffffffffffffffffffffffffffffffffffffff168373ffffffffffffffffffffffffffffffffffffffff167fddf252ad1be2c89b69c2b068fc378daa952ba7f163c4a11628f55a4df523b3ef836040516104b79190610a92565b60405180910390a3505050565b5f81519050919050565b7f4e487b71000000000000000000000000000000000000000000000000000000005f52604160045260245ffd5b7f4e487b71000000000000000000000000000000000000000000000000000000005f52602260045260245ffd5b5f600282049050600182168061053f57607f821691505b602082108103610552576105516104fb565b5b50919050565b5f819050815f5260205f209050919050565b5f6020601f8301049050919050565b5f82821b905092915050565b5f600883026105b47fffffffffffffffffffffffffffffffffffffffffffffffffffffffffffffffff82610579565b6105be8683610579565b95508019841693508086168417925050509392505050565b5f819050919050565b5f819050919050565b5f6106026105fd6105f8846105d6565b6105df565b6105d6565b9050919050565b5f819050919050565b61061b836105e8565b61062f61062782610609565b848454610585565b825550505050565b5f5f905090565b610646610637565b610651818484610612565b505050565b5b81811015610674576106695f8261063e565b600181019050610657565b5050565b601f8211156106b95761068a81610558565b6106938461056a565b810160208510156106a2578190505b6106b66106ae8561056a565b830182610656565b50505b505050565b5f82821c905092915050565b5f6106d95f19846008026106be565b1980831691505092915050565b5f6106f183836106ca565b9150826002028217905092915050565b61070a826104c4565b67ffffffffffffffff811115610723576107226104ce565b5b61072d8254610528565b610738828285610678565b5f60209050601f831160018114610769575f8415610757578287015190505b61076185826106e6565b8655506107c8565b601f19841661077786610558565b5f5b8281101561079e57848901518255600182019150602085019450602081019050610779565b868310156107bb57848901516107b7601f8916826106ca565b8355505b6001600288020188555050505b505050505050565b5f73ffffffffffffffffffffffffffffffffffffffff82169050919050565b5f6107f9826107d0565b9050919050565b610809816107ef565b82525050565b5f6020820190506108225f830184610800565b92915050565b7f4e487b71000000000000000000000000000000000000000000000000000000005f52601160045260245ffd5b5f8160011c9050919050565b5f5f8291508390505b60018511156108aa5780860481111561088657610885610828565b5b60018516156108955780820291505b80810290506108a385610855565b945061086a565b94509492505050565b5f826108c2576001905061097d565b816108cf575f905061097d565b81600181146108e557600281146108ef5761091e565b600191505061097d565b60ff84111561090157610900610828565b5b8360020a91508482111561091857610917610828565b5b5061097d565b5060208310610133831016604e8410600b84101617156109535782820a90508381111561094e5761094d610828565b5b61097d565b6109608484846001610861565b9250905081840481111561097757610976610828565b5b81810290505b9392505050565b5f60ff82169050919050565b5f61099a826105d6565b91506109a583610984565b92506109d27fffffffffffffffffffffffffffffffffffffffffffffffffffffffffffffffff84846108b3565b905092915050565b5f6109e4826105d6565b91506109ef836105d6565b92508282026109fd816105d6565b91508282048414831517610a1457610a13610828565b5b5092915050565b5f610a25826105d6565b9150610a30836105d6565b9250828201905080821115610a4857610a47610828565b5b92915050565b610a57816105d6565b82525050565b5f606082019050610a705f830186610800565b610a7d6020830185610a4e565b610a8a6040830184610a4e565b949350505050565b5f602082019050610aa55f830184610a4e565b92915050565b611e0180610ab85f395ff3fe608060405260043610610108575f3560e01c8063715018a6116100945780639896eb64116100635780639896eb64146103485780639e281a9814610364578063a9059cbb1461038c578063dd62ed3e146103c8578063f2fde38b1461040457610108565b8063715018a6146102b657806384276d81146102cc5780638da5cb5b146102f457806395d89b411461031e57610108565b806323b872dd116100db57806323b872dd146101c4578063313ce56714610200578063408d56ac1461022a57806340c10f191461025257806370a082311461027a57610108565b806306fdde031461010c578063095ea7b314610136578063153a1f3e1461017257806318160ddd1461019a575b5f5ffd5b348015610117575f5ffd5b5061012061042c565b60405161012d919061158a565b60405180910390f35b348015610141575f5ffd5b5061015c6004803603810190610157919061163f565b6104bc565b6040516101699190611697565b60405180910390f35b34801561017d575f5ffd5b5061019860048036038101906101939190611766565b6104de565b005b3480156101a5575f5ffd5b506101ae6105e1565b6040516101bb91906117f3565b60405180910390f35b3480156101cf575f5ffd5b506101ea60048036038101906101e5919061180c565b6105ea565b6040516101f79190611697565b60405180910390f35b34801561020b575f5ffd5b50610214610618565b6040516102219190611877565b60405180910390f35b348015610235575f5ffd5b50610250600480360381019061024b9190611766565b610620565b005b34801561025d575f5ffd5b506102786004803603810190610273919061163f565b610724565b005b348015610285575f5ffd5b506102a0600480360381019061029b9190611890565b610732565b6040516102ad91906117f3565b60405180910390f35b3480156102c1575f5ffd5b506102ca610777565b005b3480156102d7575f5ffd5b506102f260048036038101906102ed91906118bb565b61078a565b005b3480156102ff575f5ffd5b50610308610881565b60405161031591906118f5565b60405180910390f35b348015610329575f5ffd5b506103326108a9565b60405161033f919061158a565b60405180910390f35b610362600480360381019061035d9190611766565b610939565b005b34801561036f575f5ffd5b5061038a6004803603810190610385919061163f565b610c1d565b005b348015610397575f5ffd5b506103b260048036038101906103ad919061163f565b610ca5565b6040516103bf9190611697565b60405180910390f35b3480156103d3575f5ffd5b506103ee60048036038101906103e9919061190e565b610cc7565b6040516103fb91906117f3565b60405180910390f35b34801561040f575f5ffd5b5061042a60048036038101906104259190611890565b610d49565b005b60606003805461043b90611979565b80601f016020809104026020016040519081016040528092919081815260200182805461046790611979565b80156104b25780601f10610489576101008083540402835291602001916104b2565b820191905f5260205f20905b81548152906001019060200180831161049557829003601f168201915b5050505050905090565b5f5f6104c6610dcd565b90506104d3818585610dd4565b600191505092915050565b818190508484905014610526576040517f08c379a000000000000000000000000000000000000000000000000000000000815260040161051d906119f3565b60405180910390fd5b5f848490501161056b576040517f08c379a000000000000000000000000000000000000000000000000000000000815260040161056290611a5b565b60405180910390fd5b5f5f90505b848490508110156105da576105cd610586610dcd565b86868481811061059957610598611a79565b5b90506020020160208101906105ae9190611890565b8585858181106105c1576105c0611a79565b5b90506020020135610de6565b8080600101915050610570565b5050505050565b5f600254905090565b5f5f6105f4610dcd565b9050610601858285610ed6565b61060c858585610de6565b60019150509392505050565b5f6012905090565b610628610f69565b818190508484905014610670576040517f08c379a0000000000000000000000000000000000000000000000000000000008152600401610667906119f3565b60405180910390fd5b5f84849050116106b5576040517f08c379a00000000000000000000000000000000000000000000000000000000081526004016106ac90611a5b565b60405180910390fd5b5f5f90505b8484905081101561071d57610710308686848181106106dc576106db611a79565b5b90506020020160208101906106f19190611890565b85858581811061070457610703611a79565b5b90506020020135610de6565b80806001019150506106ba565b5050505050565b61072e8282610ff0565b5050565b5f5f5f8373ffffffffffffffffffffffffffffffffffffffff1673ffffffffffffffffffffffffffffffffffffffff1681526020019081526020015f20549050919050565b61077f610f69565b6107885f61106f565b565b610792610f69565b804710156107d5576040517f08c379a00000000000000000000000000000000000000000000000000000000081526004016107cc90611af0565b60405180910390fd5b5f3373ffffffffffffffffffffffffffffffffffffffff16826040516107fa90611b3b565b5f6040518083038185875af1925050503d805f8114610834576040519150601f19603f3d011682016040523d82523d5f602084013e610839565b606091505b505090508061087d576040517f08c379a000000000000000000000000000000000000000000000000000000000815260040161087490611b99565b60405180910390fd5b5050565b5f60055f9054906101000a900473ffffffffffffffffffffffffffffffffffffffff16905090565b6060600480546108b890611979565b80601f01602080910402602001604051908101604052809291908181526020018280546108e490611979565b801561092f5780601f106109065761010080835404028352916020019161092f565b820191905f5260205f20905b81548152906001019060200180831161091257829003601f168201915b5050505050905090565b818190508484905014610981576040517f08c379a0000000000000000000000000000000000000000000000000000000008152600401610978906119f3565b60405180910390fd5b5f84849050116109c6576040517f08c379a00000000000000000000000000000000000000000000000000000000081526004016109bd90611a5b565b60405180910390fd5b5f5f90505f5f90505b83839050811015610a0e578383828181106109ed576109ec611a79565b5b90506020020135826109ff9190611be4565b915080806001019150506109cf565b5080341015610a52576040517f08c379a0000000000000000000000000000000000000000000000000000000008152600401610a4990611c61565b60405180910390fd5b5f5f90505b85859050811015610b58575f868683818110610a7657610a75611a79565b5b9050602002016020810190610a8b9190611890565b73ffffffffffffffffffffffffffffffffffffffff16858584818110610ab457610ab3611a79565b5b90506020020135604051610ac790611b3b565b5f6040518083038185875af1925050503d805f8114610b01576040519150601f19603f3d011682016040523d82523d5f602084013e610b06565b606091505b5050905080610b4a576040517f08c379a0000000000000000000000000000000000000000000000000000000008152600401610b4190611b99565b60405180910390fd5b508080600101915050610a57565b5080341115610c16575f3373ffffffffffffffffffffffffffffffffffffffff168234610b859190611c7f565b604051610b9190611b3b565b5f6040518083038185875af1925050503d805f8114610bcb576040519150601f19603f3d011682016040523d82523d5f602084013e610bd0565b606091505b5050905080610c14576040517f08c379a0000000000000000000000000000000000000000000000000000000008152600401610c0b90611cfc565b60405180910390fd5b505b5050505050565b610c25610f69565b8173ffffffffffffffffffffffffffffffffffffffff1663a9059cbb33836040518363ffffffff1660e01b8152600401610c60929190611d1a565b6020604051808303815f875af1158015610c7c573d5f5f3e3d5ffd5b505050506040513d601f19601f82011682018060405250810190610ca09190611d6b565b505050565b5f5f610caf610dcd565b9050610cbc818585610de6565b600191505092915050565b5f60015f8473ffffffffffffffffffffffffffffffffffffffff1673ffffffffffffffffffffffffffffffffffffffff1681526020019081526020015f205f8373ffffffffffffffffffffffffffffffffffffffff1673ffffffffffffffffffffffffffffffffffffffff1681526020019081526020015f2054905092915050565b610d51610f69565b5f73ffffffffffffffffffffffffffffffffffffffff168173ffffffffffffffffffffffffffffffffffffffff1603610dc1575f6040517f1e4fbdf7000000000000000000000000000000000000000000000000000000008152600401610db891906118f5565b60405180910390fd5b610dca8161106f565b50565b5f33905090565b610de18383836001611132565b505050565b5f73ffffffffffffffffffffffffffffffffffffffff168373ffffffffffffffffffffffffffffffffffffffff1603610e56575f6040517f96c6fd1e000000000000000000000000000000000000000000000000000000008152600401610e4d91906118f5565b60405180910390fd5b5f73ffffffffffffffffffffffffffffffffffffffff168273ffffffffffffffffffffffffffffffffffffffff1603610ec6575f6040517fec442f05000000000000000000000000000000000000000000000000000000008152600401610ebd91906118f5565b60405180910390fd5b610ed1838383611301565b505050565b5f610ee18484610cc7565b90507fffffffffffffffffffffffffffffffffffffffffffffffffffffffffffffffff811015610f635781811015610f54578281836040517ffb8f41b2000000000000000000000000000000000000000000000000000000008152600401610f4b93929190611d96565b60405180910390fd5b610f6284848484035f611132565b5b50505050565b610f71610dcd565b73ffffffffffffffffffffffffffffffffffffffff16610f8f610881565b73ffffffffffffffffffffffffffffffffffffffff1614610fee57610fb2610dcd565b6040517f118cdaa7000000000000000000000000000000000000000000000000000000008152600401610fe591906118f5565b60405180910390fd5b565b5f73ffffffffffffffffffffffffffffffffffffffff168273ffffffffffffffffffffffffffffffffffffffff1603611060575f6040517fec442f0500000000000000000000000000000000000000000000000000000000815260040161105791906118f5565b60405180910390fd5b61106b5f8383611301565b5050565b5f60055f9054906101000a900473ffffffffffffffffffffffffffffffffffffffff1690508160055f6101000a81548173ffffffffffffffffffffffffffffffffffffffff021916908373ffffffffffffffffffffffffffffffffffffffff1602179055508173ffffffffffffffffffffffffffffffffffffffff168173ffffffffffffffffffffffffffffffffffffffff167f8be0079c531659141344cd1fd0a4f28419497f9722a3daafe3b4186f6b6457e060405160405180910390a35050565b5f73ffffffffffffffffffffffffffffffffffffffff168473ffffffffffffffffffffffffffffffffffffffff16036111a2575f6040517fe602df0500000000000000000000000000000000000000000000000000000000815260040161119991906118f5565b60405180910390fd5b5f73ffffffffffffffffffffffffffffffffffffffff168373ffffffffffffffffffffffffffffffffffffffff1603611212575f6040517f94280d6200000000000000000000000000000000000000000000000000000000815260040161120991906118f5565b60405180910390fd5b8160015f8673ffffffffffffffffffffffffffffffffffffffff1673ffffffffffffffffffffffffffffffffffffffff1681526020019081526020015f205f8573ffffffffffffffffffffffffffffffffffffffff1673ffffffffffffffffffffffffffffffffffffffff1681526020019081526020015f208190555080156112fb578273ffffffffffffffffffffffffffffffffffffffff168473ffffffffffffffffffffffffffffffffffffffff167f8c5be1e5ebec7d5bd14f71427d1e84f3dd0314c0f7b2291e5b200ac8c7c3b925846040516112f291906117f3565b60405180910390a35b50505050565b5f73ffffffffffffffffffffffffffffffffffffffff168373ffffffffffffffffffffffffffffffffffffffff1603611351578060025f8282546113459190611be4565b9250508190555061141f565b5f5f5f8573ffffffffffffffffffffffffffffffffffffffff1673ffffffffffffffffffffffffffffffffffffffff1681526020019081526020015f20549050818110156113da578381836040517fe450d38c0000000000000000000000000000000000000000000000000000000081526004016113d193929190611d96565b60405180910390fd5b8181035f5f8673ffffffffffffffffffffffffffffffffffffffff1673ffffffffffffffffffffffffffffffffffffffff1681526020019081526020015f2081905550505b5f73ffffffffffffffffffffffffffffffffffffffff168273ffffffffffffffffffffffffffffffffffffffff1603611466578060025f82825403925050819055506114b0565b805f5f8473ffffffffffffffffffffffffffffffffffffffff1673ffffffffffffffffffffffffffffffffffffffff1681526020019081526020015f205f82825401925050819055505b8173ffffffffffffffffffffffffffffffffffffffff168373ffffffffffffffffffffffffffffffffffffffff167fddf252ad1be2c89b69c2b068fc378daa952ba7f163c4a11628f55a4df523b3ef8360405161150d91906117f3565b60405180910390a3505050565b5f81519050919050565b5f82825260208201905092915050565b8281835e5f83830152505050565b5f601f19601f8301169050919050565b5f61155c8261151a565b6115668185611524565b9350611576818560208601611534565b61157f81611542565b840191505092915050565b5f6020820190508181035f8301526115a28184611552565b905092915050565b5f5ffd5b5f5ffd5b5f73ffffffffffffffffffffffffffffffffffffffff82169050919050565b5f6115db826115b2565b9050919050565b6115eb816115d1565b81146115f5575f5ffd5b50565b5f81359050611606816115e2565b92915050565b5f819050919050565b61161e8161160c565b8114611628575f5ffd5b50565b5f8135905061163981611615565b92915050565b5f5f60408385031215611655576116546115aa565b5b5f611662858286016115f8565b92505060206116738582860161162b565b9150509250929050565b5f8115159050919050565b6116918161167d565b82525050565b5f6020820190506116aa5f830184611688565b92915050565b5f5ffd5b5f5ffd5b5f5ffd5b5f5f83601f8401126116d1576116d06116b0565b5b8235905067ffffffffffffffff8111156116ee576116ed6116b4565b5b60208301915083602082028301111561170a576117096116b8565b5b9250929050565b5f5f83601f840112611726576117256116b0565b5b8235905067ffffffffffffffff811115611743576117426116b4565b5b60208301915083602082028301111561175f5761175e6116b8565b5b9250929050565b5f5f5f5f6040858703121561177e5761177d6115aa565b5b5f85013567ffffffffffffffff81111561179b5761179a6115ae565b5b6117a7878288016116bc565b9450945050602085013567ffffffffffffffff8111156117ca576117c96115ae565b5b6117d687828801611711565b925092505092959194509250565b6117ed8161160c565b82525050565b5f6020820190506118065f8301846117e4565b92915050565b5f5f5f60608486031215611823576118226115aa565b5b5f611830868287016115f8565b9350506020611841868287016115f8565b92505060406118528682870161162b565b9150509250925092565b5f60ff82169050919050565b6118718161185c565b82525050565b5f60208201905061188a5f830184611868565b92915050565b5f602082840312156118a5576118a46115aa565b5b5f6118b2848285016115f8565b91505092915050565b5f602082840312156118d0576118cf6115aa565b5b5f6118dd8482850161162b565b91505092915050565b6118ef816115d1565b82525050565b5f6020820190506119085f8301846118e6565b92915050565b5f5f60408385031215611924576119236115aa565b5b5f611931858286016115f8565b9250506020611942858286016115f8565b9150509250929050565b7f4e487b71000000000000000000000000000000000000000000000000000000005f52602260045260245ffd5b5f600282049050600182168061199057607f821691505b6020821081036119a3576119a261194c565b5b50919050565b7f417272617973206c656e677468206d69736d61746368000000000000000000005f82015250565b5f6119dd601683611524565b91506119e8826119a9565b602082019050919050565b5f6020820190508181035f830152611a0a816119d1565b9050919050565b7f4e6f20726563697069656e7473000000000000000000000000000000000000005f82015250565b5f611a45600d83611524565b9150611a5082611a11565b602082019050919050565b5f6020820190508181035f830152611a7281611a39565b9050919050565b7f4e487b71000000000000000000000000000000000000000000000000000000005f52603260045260245ffd5b7f496e73756666696369656e742062616c616e63650000000000000000000000005f82015250565b5f611ada601483611524565b9150611ae582611aa6565b602082019050919050565b5f6020820190508181035f830152611b0781611ace565b9050919050565b5f81905092915050565b50565b5f611b265f83611b0e565b9150611b3182611b18565b5f82019050919050565b5f611b4582611b1b565b9150819050919050565b7f5472616e73666572206661696c656400000000000000000000000000000000005f82015250565b5f611b83600f83611524565b9150611b8e82611b4f565b602082019050919050565b5f6020820190508181035f830152611bb081611b77565b9050919050565b7f4e487b71000000000000000000000000000000000000000000000000000000005f52601160045260245ffd5b5f611bee8261160c565b9150611bf98361160c565b9250828201905080821115611c1157611c10611bb7565b5b92915050565b7f496e636f72726563742076616c75652073656e740000000000000000000000005f82015250565b5f611c4b601483611524565b9150611c5682611c17565b602082019050919050565b5f6020820190508181035f830152611c7881611c3f565b9050919050565b5f611c898261160c565b9150611c948361160c565b9250828203905081811115611cac57611cab611bb7565b5b92915050565b7f526566756e64206661696c6564000000000000000000000000000000000000005f82015250565b5f611ce6600d83611524565b9150611cf182611cb2565b602082019050919050565b5f6020820190508181035f830152611d1381611cda565b9050919050565b5f604082019050611d2d5f8301856118e6565b611d3a60208301846117e4565b9392505050565b611d4a8161167d565b8114611d54575f5ffd5b50565b5f81519050611d6581611d41565b92915050565b5f60208284031215611d8057611d7f6115aa565b5b5f611d8d84828501611d57565b91505092915050565b5f606082019050611da95f8301866118e6565b611db660208301856117e4565b611dc360408301846117e4565b94935050505056fea2646970667358221220630530939f2bb91cf8dced795b59eb1adc86abc00ece97201a30066def20874964736f6c634300081c0033","linkReferences":{}},"methodIdentifiers":{"allowance(address,address)":"dd62ed3e","approve(address,uint256)":"095ea7b3","balanceOf(address)":"70a08231","bulkTransfer(address[],uint256[])":"153a1f3e","bulkTransferFromContract(address[],uint256[])":"408d56ac","bulkTransferNative(address[],uint256[])":"9896eb64","decimals()":"313ce567","mint(address,uint256)":"40c10f19","name()":"06fdde03","owner()":"8da5cb5b","renounceOwnership()":"715018a6","symbol()":"95d89b41","totalSupply()":"18160ddd","transfer(address,uint256)":"a9059cbb","transferFrom(address,address,uint256)":"23b872dd","transferOwnership(address)":"f2fde38b","withdrawNative(uint256)":"84276d81","withdrawToken(address,uint256)":"9e281a98"},"id":23}